{
  "contractName": "A",
  "abi": [
    {
      "constant": true,
      "inputs": [],
      "name": "b",
      "outputs": [
        {
          "name": "",
          "type": "address"
        }
      ],
      "payable": false,
      "stateMutability": "view",
      "type": "function"
    },
    {
      "constant": false,
      "inputs": [
        {
          "name": "_b",
          "type": "address"
        }
      ],
      "name": "setB",
      "outputs": [],
      "payable": false,
      "stateMutability": "nonpayable",
      "type": "function"
    },
    {
      "constant": true,
      "inputs": [],
      "name": "getB",
      "outputs": [
        {
          "name": "",
          "type": "string"
        }
      ],
      "payable": false,
      "stateMutability": "view",
      "type": "function"
    }
  ],
  "bytecode": "0x608060405234801561001057600080fd5b50610337806100206000396000f300608060405260043610610057576000357c0100000000000000000000000000000000000000000000000000000000900463ffffffff1680634df7e3d01461005c5780637004be72146100b3578063a1c51915146100f6575b600080fd5b34801561006857600080fd5b50610071610186565b604051808273ffffffffffffffffffffffffffffffffffffffff1673ffffffffffffffffffffffffffffffffffffffff16815260200191505060405180910390f35b3480156100bf57600080fd5b506100f4600480360381019080803573ffffffffffffffffffffffffffffffffffffffff1690602001909291905050506101ab565b005b34801561010257600080fd5b5061010b6101ee565b6040518080602001828103825283818151815260200191508051906020019080838360005b8381101561014b578082015181840152602081019050610130565b50505050905090810190601f1680156101785780820380516001836020036101000a031916815260200191505b509250505060405180910390f35b6000809054906101000a900473ffffffffffffffffffffffffffffffffffffffff1681565b806000806101000a81548173ffffffffffffffffffffffffffffffffffffffff021916908373ffffffffffffffffffffffffffffffffffffffff16021790555050565b60606000809054906101000a900473ffffffffffffffffffffffffffffffffffffffff1673ffffffffffffffffffffffffffffffffffffffff166306fdde036040518163ffffffff167c0100000000000000000000000000000000000000000000000000000000028152600401600060405180830381600087803b15801561027557600080fd5b505af1158015610289573d6000803e3d6000fd5b505050506040513d6000823e3d601f19601f8201168201806040525060208110156102b357600080fd5b8101908080516401000000008111156102cb57600080fd5b828101905060208101848111156102e157600080fd5b81518560018202830111640100000000821117156102fe57600080fd5b50509291905050509050905600a165627a7a723058200ba2fa7829686562b31c20638249702d0f21955b29dece06c0ba9e4b4acfcce10029",
  "source": "pragma solidity ^0.4.20;\n\ncontract B {\n    string public name;\n    \n    function setName(string _name) public {\n        name = _name;\n    }\n\n    function returnContractAddress() public view returns (B) {\n        return this;\n    }\n}\n\ncontract A {\n    B public b;\n\n    function setB(B _b) public {\n        b = _b;\n    }\n\n    function getB() public view returns (string){\n        return b.name();\n    }\n}",
  "sourcePath": "/Users/wangbin/Documents/workspace/pioneers/contracts/petshop/contracts/B.sol",
  "compiler": {
    "name": "solc",
    "version": "0.4.24+commit.e67f0147.Emscripten.clang"
  },
  "schemaVersion": "2.0.1",
  "updatedAt": "2018-09-22T09:19:03.501Z"
}