{
  "contractName": "B",
  "abi": [
    {
      "constant": true,
      "inputs": [],
      "name": "name",
      "outputs": [
        {
          "name": "",
          "type": "string"
        }
      ],
      "payable": false,
      "stateMutability": "view",
      "type": "function"
    },
    {
      "constant": false,
      "inputs": [
        {
          "name": "_name",
          "type": "string"
        }
      ],
      "name": "setName",
      "outputs": [],
      "payable": false,
      "stateMutability": "nonpayable",
      "type": "function"
    },
    {
      "constant": true,
      "inputs": [],
      "name": "returnContractAddress",
      "outputs": [
        {
          "name": "",
          "type": "address"
        }
      ],
      "payable": false,
      "stateMutability": "view",
      "type": "function"
    }
  ],
  "bytecode": "0x608060405234801561001057600080fd5b5061033d806100206000396000f300608060405260043610610057576000357c0100000000000000000000000000000000000000000000000000000000900463ffffffff1680630589a27c1461005c57806306fdde03146100b3578063c47f002714610143575b600080fd5b34801561006857600080fd5b506100716101ac565b604051808273ffffffffffffffffffffffffffffffffffffffff1673ffffffffffffffffffffffffffffffffffffffff16815260200191505060405180910390f35b3480156100bf57600080fd5b506100c86101b4565b6040518080602001828103825283818151815260200191508051906020019080838360005b838110156101085780820151818401526020810190506100ed565b50505050905090810190601f1680156101355780820380516001836020036101000a031916815260200191505b509250505060405180910390f35b34801561014f57600080fd5b506101aa600480360381019080803590602001908201803590602001908080601f0160208091040260200160405190810160405280939291908181526020018383808284378201915050505050509192919290505050610252565b005b600030905090565b60008054600181600116156101000203166002900480601f01602080910402602001604051908101604052809291908181526020018280546001816001161561010002031660029004801561024a5780601f1061021f5761010080835404028352916020019161024a565b820191906000526020600020905b81548152906001019060200180831161022d57829003601f168201915b505050505081565b806000908051906020019061026892919061026c565b5050565b828054600181600116156101000203166002900490600052602060002090601f016020900481019282601f106102ad57805160ff19168380011785556102db565b828001600101855582156102db579182015b828111156102da5782518255916020019190600101906102bf565b5b5090506102e891906102ec565b5090565b61030e91905b8082111561030a5760008160009055506001016102f2565b5090565b905600a165627a7a723058201ce6f76a049bb7a1c38e4af91d9e57a20d8da6993319f3ed08fb23294eae675c0029",
  "source": "pragma solidity ^0.4.20;\n\ncontract B {\n    string public name;\n    \n    function setName(string _name) public {\n        name = _name;\n    }\n\n    function returnContractAddress() public view returns (B) {\n        return this;\n    }\n}\n\ncontract A {\n    B public b;\n\n    function setB(B _b) public {\n        b = _b;\n    }\n\n    function getB() public view returns (string){\n        return b.name();\n    }\n}",
  "sourcePath": "/Users/wangbin/Documents/workspace/pioneers/contracts/petshop/contracts/B.sol",
  "compiler": {
    "name": "solc",
    "version": "0.4.24+commit.e67f0147.Emscripten.clang"
  },
  "schemaVersion": "2.0.1",
  "updatedAt": "2018-09-22T09:19:03.501Z"
}