{
  "contractName": "C",
  "abi": [
    {
      "constant": false,
      "inputs": [
        {
          "name": "_openid",
          "type": "string"
        },
        {
          "name": "_userName",
          "type": "string"
        }
      ],
      "name": "createUser",
      "outputs": [],
      "payable": false,
      "stateMutability": "nonpayable",
      "type": "function"
    },
    {
      "constant": false,
      "inputs": [
        {
          "name": "openid",
          "type": "string"
        },
        {
          "name": "bookName",
          "type": "string"
        }
      ],
      "name": "addBook",
      "outputs": [],
      "payable": false,
      "stateMutability": "nonpayable",
      "type": "function"
    },
    {
      "constant": true,
      "inputs": [
        {
          "name": "openid",
          "type": "string"
        },
        {
          "name": "index",
          "type": "uint256"
        }
      ],
      "name": "getUserBooksByOpenIdAndBookIndex",
      "outputs": [
        {
          "name": "",
          "type": "string"
        }
      ],
      "payable": false,
      "stateMutability": "view",
      "type": "function"
    },
    {
      "constant": true,
      "inputs": [
        {
          "name": "openid",
          "type": "string"
        }
      ],
      "name": "getUserBookNumsByOpenId",
      "outputs": [
        {
          "name": "",
          "type": "uint256"
        }
      ],
      "payable": false,
      "stateMutability": "view",
      "type": "function"
    },
    {
      "constant": true,
      "inputs": [
        {
          "name": "openid",
          "type": "string"
        }
      ],
      "name": "getUserBooksByOpenId",
      "outputs": [
        {
          "name": "",
          "type": "string"
        }
      ],
      "payable": false,
      "stateMutability": "view",
      "type": "function"
    }
  ],
  "bytecode": "0x608060405234801561001057600080fd5b50610aa5806100206000396000f30060806040526004361061006d576000357c0100000000000000000000000000000000000000000000000000000000900463ffffffff1680637f413cbb1461007257806387b162b5146100af578063885d7f89146100d8578063d8a7233e14610115578063f195fb9f1461013e575b600080fd5b34801561007e57600080fd5b50610099600480360361009491908101906108ca565b61017b565b6040516100a69190610963565b60405180910390f35b3480156100bb57600080fd5b506100d660048036036100d1919081019061085e565b6102a6565b005b3480156100e457600080fd5b506100ff60048036036100fa919081019061081d565b6103b0565b60405161010c9190610985565b60405180910390f35b34801561012157600080fd5b5061013c6004803603610137919081019061085e565b61042a565b005b34801561014a57600080fd5b506101656004803603610160919081019061081d565b6104ab565b6040516101729190610963565b60405180910390f35b60606000836040518082805190602001908083835b6020831015156101b55780518252602082019150602081019050602083039250610190565b6001836020036101000a0380198251168184511680821785525050505050509050019150509081526020016040518091039020600201828154811015156101f857fe5b906000526020600020016000018054600181600116156101000203166002900480601f0160208091040260200160405190810160405280929190818152602001828054600181600116156101000203166002900480156102995780601f1061026e57610100808354040283529160200191610299565b820191906000526020600020905b81548152906001019060200180831161027c57829003601f168201915b5050505050905092915050565b816000836040518082805190602001908083835b6020831015156102df57805182526020820191506020810190506020830392506102ba565b6001836020036101000a0380198251168184511680821785525050505050509050019150509081526020016040518091039020600001908051906020019061032892919061068e565b50806000836040518082805190602001908083835b602083101515610362578051825260208201915060208101905060208303925061033d565b6001836020036101000a038019825116818451168082178552505050505050905001915050908152602001604051809103902060010190805190602001906103ab92919061068e565b505050565b600080826040518082805190602001908083835b6020831015156103e957805182526020820191506020810190506020830392506103c4565b6001836020036101000a0380198251168184511680821785525050505050509050019150509081526020016040518091039020600201805490509050919050565b6104a7816000846040518082805190602001908083835b6020831015156104665780518252602082019150602081019050602083039250610441565b6001836020036101000a038019825116818451168082178552505050505050905001915050908152602001604051809103902061062f90919063ffffffff16565b5050565b6060806000806000856040518082805190602001908083835b6020831015156104e957805182526020820191506020810190506020830392506104c4565b6001836020036101000a03801982511681845116808217855250505050505090500191505090815260200160405180910390209150600090505b600281101561060c57816002018181548110151561053d57fe5b906000526020600020016000018054600181600116156101000203166002900480601f0160208091040260200160405190810160405280929190818152602001828054600181600116156101000203166002900480156105de5780601f106105b3576101008083540402835291602001916105de565b820191906000526020600020905b8154815290600101906020018083116105c157829003601f168201915b50505050508360008151811015156105f257fe5b906020019060200201819052508080600101915050610523565b82600081518110151561061b57fe5b906020019060200201519350505050919050565b8160020160206040519081016040528083815250908060018154018082558091505090600182039060005260206000200160009091929091909150600082015181600001908051906020019061068692919061070e565b505050505050565b828054600181600116156101000203166002900490600052602060002090601f016020900481019282601f106106cf57805160ff19168380011785556106fd565b828001600101855582156106fd579182015b828111156106fc5782518255916020019190600101906106e1565b5b50905061070a919061078e565b5090565b828054600181600116156101000203166002900490600052602060002090601f016020900481019282601f1061074f57805160ff191683800117855561077d565b8280016001018555821561077d579182015b8281111561077c578251825591602001919060010190610761565b5b50905061078a919061078e565b5090565b6107b091905b808211156107ac576000816000905550600101610794565b5090565b90565b600082601f83011215156107c657600080fd5b81356107d96107d4826109cd565b6109a0565b915080825260208301602083018583830111156107f557600080fd5b610800838284610a18565b50505092915050565b60006108158235610a0e565b905092915050565b60006020828403121561082f57600080fd5b600082013567ffffffffffffffff81111561084957600080fd5b610855848285016107b3565b91505092915050565b6000806040838503121561087157600080fd5b600083013567ffffffffffffffff81111561088b57600080fd5b610897858286016107b3565b925050602083013567ffffffffffffffff8111156108b457600080fd5b6108c0858286016107b3565b9150509250929050565b600080604083850312156108dd57600080fd5b600083013567ffffffffffffffff8111156108f757600080fd5b610903858286016107b3565b925050602061091485828601610809565b9150509250929050565b6000610929826109f9565b80845261093d816020860160208601610a27565b61094681610a5a565b602085010191505092915050565b61095d81610a04565b82525050565b6000602082019050818103600083015261097d818461091e565b905092915050565b600060208201905061099a6000830184610954565b92915050565b6000604051905081810181811067ffffffffffffffff821117156109c357600080fd5b8060405250919050565b600067ffffffffffffffff8211156109e457600080fd5b601f19601f8301169050602081019050919050565b600081519050919050565b6000819050919050565b6000819050919050565b82818337600083830152505050565b60005b83811015610a45578082015181840152602081019050610a2a565b83811115610a54576000848401525b50505050565b6000601f19601f83011690509190505600a265627a7a7230582065c36dd7cc85ad6a1f75d39b426d317307c4d8ca4e0bb0da6a0b78ec414054bb6c6578706572696d656e74616cf50037",
  "source": "pragma solidity ^0.4.20;\npragma experimental ABIEncoderV2;\n\nlibrary LUser {\n    struct Book {\n        string bookName;\n    }\n\n    struct User {\n        string openid;\n        string userName;\n        Book[] books;\n    }\n\n    function addBook(User storage _u, string _bookName) internal {\n        _u.books.push(Book(_bookName));\n    }\n}\n\n\n\ncontract C {\n    using LUser for LUser.User;\n\n    mapping (string => LUser.User) users;\n\n    function createUser(string _openid, string _userName) public {\n        users[_openid].openid = _openid;\n        users[_openid].userName = _userName;\n    }\n\n    function addBook(string openid, string bookName) public {\n        users[openid].addBook(bookName);\n    }\n\n    function getUserBooksByOpenIdAndBookIndex(string openid, uint index) public view returns(string) {\n        return users[openid].books[index].bookName;\n    }\n\n    function getUserBookNumsByOpenId(string openid) public view returns(uint256) {\n        return users[openid].books.length;\n    }\n\n    function getUserBooksByOpenId(string openid) public view returns(string memory) {\n        string[] memory arrays;\n        LUser.User storage user = users[openid];\n        for(uint i = 0;i<2;i++) {\n            arrays[0] = user.books[i].bookName;\n        }\n        return arrays[0];\n    }\n}",
  "sourcePath": "/Users/wangbin/Documents/workspace/pioneers/contracts/petshop/contracts/ChainBook.sol",
  "compiler": {
    "name": "solc",
    "version": "0.4.24+commit.e67f0147.Emscripten.clang"
  },
  "schemaVersion": "2.0.1",
  "updatedAt": "2018-09-22T09:19:03.503Z"
}