{
  "contractName": "TestArray",
  "abi": [
    {
      "constant": true,
      "inputs": [
        {
          "name": "",
          "type": "uint256"
        }
      ],
      "name": "myArray",
      "outputs": [
        {
          "name": "",
          "type": "string"
        }
      ],
      "payable": false,
      "stateMutability": "view",
      "type": "function"
    },
    {
      "constant": true,
      "inputs": [],
      "name": "getArray",
      "outputs": [
        {
          "name": "",
          "type": "string[]"
        }
      ],
      "payable": false,
      "stateMutability": "view",
      "type": "function"
    },
    {
      "constant": false,
      "inputs": [
        {
          "name": "a",
          "type": "string"
        }
      ],
      "name": "pushTo",
      "outputs": [],
      "payable": false,
      "stateMutability": "nonpayable",
      "type": "function"
    }
  ],
  "bytecode": "0x608060405261000c61007b565b604051809103906000f080158015610028573d6000803e3d6000fd5b50600160006101000a81548173ffffffffffffffffffffffffffffffffffffffff021916908373ffffffffffffffffffffffffffffffffffffffff16021790555034801561007557600080fd5b5061008b565b6040516101ad8061082883390190565b61078e8061009a6000396000f300608060405260043610610057576000357c0100000000000000000000000000000000000000000000000000000000900463ffffffff168063329d243f1461005c578063cc3e57d914610085578063d504ea1d146100c2575b600080fd5b34801561006857600080fd5b50610083600480360361007e919081019061048c565b6100ed565b005b34801561009157600080fd5b506100ac60048036036100a791908101906104cd565b6101d9565b6040516100b99190610602565b60405180910390f35b3480156100ce57600080fd5b506100d7610294565b6040516100e491906105e0565b60405180910390f35b600160009054906101000a900473ffffffffffffffffffffffffffffffffffffffff1673ffffffffffffffffffffffffffffffffffffffff1663b60e72cc60fa6040518263ffffffff167c01000000000000000000000000000000000000000000000000000000000281526004016101659190610624565b600060405180830381600087803b15801561017f57600080fd5b505af1158015610193573d6000803e3d6000fd5b5050505060008190806001815401808255809150509060018203906000526020600020016000909192909190915090805190602001906101d492919061037d565b505050565b6000818154811015156101e857fe5b906000526020600020016000915090508054600181600116156101000203166002900480601f01602080910402602001604051908101604052809291908181526020018280546001816001161561010002031660029004801561028c5780601f106102615761010080835404028352916020019161028c565b820191906000526020600020905b81548152906001019060200180831161026f57829003601f168201915b505050505081565b60606000805480602002602001604051908101604052809291908181526020016000905b82821015610374578382906000526020600020018054600181600116156101000203166002900480601f0160208091040260200160405190810160405280929190818152602001828054600181600116156101000203166002900480156103605780601f1061033557610100808354040283529160200191610360565b820191906000526020600020905b81548152906001019060200180831161034357829003601f168201915b5050505050815260200190600101906102b8565b50505050905090565b828054600181600116156101000203166002900490600052602060002090601f016020900481019282601f106103be57805160ff19168380011785556103ec565b828001600101855582156103ec579182015b828111156103eb5782518255916020019190600101906103d0565b5b5090506103f991906103fd565b5090565b61041f91905b8082111561041b576000816000905550600101610403565b5090565b90565b600082601f830112151561043557600080fd5b81356104486104438261067f565b610652565b9150808252602083016020830185838301111561046457600080fd5b61046f838284610701565b50505092915050565b600061048482356106e5565b905092915050565b60006020828403121561049e57600080fd5b600082013567ffffffffffffffff8111156104b857600080fd5b6104c484828501610422565b91505092915050565b6000602082840312156104df57600080fd5b60006104ed84828501610478565b91505092915050565b6000610501826106b8565b8084526020840193508360208202850161051a856106ab565b60005b84811015610553578383038852610535838351610573565b9250610540826106ce565b915060208801975060018101905061051d565b508196508694505050505092915050565b61056d816106ef565b82525050565b600061057e826106c3565b808452610592816020860160208601610710565b61059b81610743565b602085010191505092915050565b6000600782527f77656e66656e67000000000000000000000000000000000000000000000000006020830152604082019050919050565b600060208201905081810360008301526105fa81846104f6565b905092915050565b6000602082019050818103600083015261061c8184610573565b905092915050565b6000604082019050818103600083015261063d816105a9565b905061064c6020830184610564565b92915050565b6000604051905081810181811067ffffffffffffffff8211171561067557600080fd5b8060405250919050565b600067ffffffffffffffff82111561069657600080fd5b601f19601f8301169050602081019050919050565b6000602082019050919050565b600081519050919050565b600081519050919050565b6000602082019050919050565b6000819050919050565b6000819050919050565b60006106fa826106db565b9050919050565b82818337600083830152505050565b60005b8381101561072e578082015181840152602081019050610713565b8381111561073d576000848401525b50505050565b6000601f19601f83011690509190505600a265627a7a723058207f19ce416efb5cf7cd6b15ccba8b253bc559cb9a2ee7d20b69257658f1145d326c6578706572696d656e74616cf50037608060405234801561001057600080fd5b5061018d806100206000396000f300608060405260043610610041576000357c0100000000000000000000000000000000000000000000000000000000900463ffffffff168063b60e72cc14610046575b600080fd5b34801561005257600080fd5b506100b7600480360381019080803590602001908201803590602001908080601f0160208091040260200160405190810160405280939291908181526020018383808284378201915050505050509192919290803590602001909291905050506100b9565b005b7f941296a39ea107bde685522318a4b6c2b544904a5dd82a512748ca2cf839bef782826040518080602001838152602001828103825284818151815260200191508051906020019080838360005b83811015610122578082015181840152602081019050610107565b50505050905090810190601f16801561014f5780820380516001836020036101000a031916815260200191505b50935050505060405180910390a150505600a165627a7a723058204dbb25b25d5f7a37ac23b056e822d6354f32c3d74168c636d58122fc0b3030ee0029",
  "source": "pragma solidity ^0.4.20;\npragma experimental ABIEncoderV2;\nimport \"./Log.sol\";\n\ncontract TestArray {\n    string[] public myArray;\n    Log log = new Log();\n\n    function getArray() public view returns (string[] memory) {\n        return myArray;\n    }\n\n    function pushTo(string a) public {\n        log.log(\"wenfeng\", 250);\n        myArray.push(a);\n    }\n}",
  "sourcePath": "/Users/wangbin/Documents/workspace/pioneers/contracts/petshop/contracts/TestArray.sol",
  "compiler": {
    "name": "solc",
    "version": "0.4.24+commit.e67f0147.Emscripten.clang"
  },
  "schemaVersion": "2.0.1",
  "updatedAt": "2018-09-22T09:19:03.668Z"
}