{
  "contractName": "User",
  "abi": [
    {
      "constant": false,
      "inputs": [
        {
          "name": "_name",
          "type": "string"
        }
      ],
      "name": "setName",
      "outputs": [],
      "payable": false,
      "stateMutability": "nonpayable",
      "type": "function"
    }
  ],
  "bytecode": "0x608060405234801561001057600080fd5b5061019a806100206000396000f300608060405260043610610041576000357c0100000000000000000000000000000000000000000000000000000000900463ffffffff168063c47f002714610046575b600080fd5b34801561005257600080fd5b506100ad600480360381019080803590602001908201803590602001908080601f01602080910402602001604051908101604052809392919081815260200183838082843782019150505050505091929192905050506100af565b005b80600090805190602001906100c59291906100c9565b5050565b828054600181600116156101000203166002900490600052602060002090601f016020900481019282601f1061010a57805160ff1916838001178555610138565b82800160010185558215610138579182015b8281111561013757825182559160200191906001019061011c565b5b5090506101459190610149565b5090565b61016b91905b8082111561016757600081600090555060010161014f565b5090565b905600a165627a7a72305820b7cc29f6da1dc6e245d210c7607caa82ee43a9a77a95b1532573ce1b9bab11ae0029",
  "source": "pragma solidity ^0.4.20;\n\ncontract User {\n    string private name;\n\n    function setName(string _name) public {\n        name = _name;\n    }\n}",
  "sourcePath": "/Users/wangbin/Documents/workspace/pioneers/contracts/petshop/contracts/User.sol",
  "compiler": {
    "name": "solc",
    "version": "0.4.24+commit.e67f0147.Emscripten.clang"
  },
  "schemaVersion": "2.0.1",
  "updatedAt": "2018-09-22T09:19:03.185Z"
}